:100000000C946E060C94A6060C94A6060C94F42F81
:100010000C94A6060C94A6060C94A6060C94A606B0
:100020000C94A6060C94A6060C9494170C941E1C13
:100030000C94FD270C94A6060C94A6060C94A60618
:100040000C94A6060C94A6060C94A6060C94A60680
:100050000C94A6060C946D180C94A6060C94A60697
:100060000C94A6060C94A6060C94A6060C94A60660
:100070000C94A6060C94A6060C94A6060C94A60650
:100080000C94A6060C94A6060C94A6060C94A60640
:100090000C94A6060C94A6060C94A6060C94A60630
:1000A0000C94A6060C94A6060C94A6062B0014002D
:1000B0001A00080015001700294104001600070067
:1000C00009000A00E1001D681B64066119000500B3
:1000D000000000000000000F2C0028003100130079
:1000E00012000C0018001C00344133000F000E00F9
:1000F0000D000B00E50038783774367110001100E0
:10010000000000000000396F2A004C0035001E027C
:100110001F022F0230024F0000002002210226029F
:10012000270250000100220223022F0030002D0080
:10013000000000000000000F010001000253550004
:10014000260025002400520000002E00230022007B
:10015000210051000100277820741F711E00240225
:10016000000000000000000F0100010000003A0044
:100170003B003C003D003E000050C05CBF5CBE5CEC
:10018000C65CC85C0100C35CCA5CCB5CC75CC95C74
:10019000000000000000000F0100010044004300C7
:1001A0004200410040003F00450000000000635D48
:1001B000645D095C01000018E600E400655D125C06
:1001C000000000000000000F0100010000DA0281C1
:1001D000FFD9F1DB20A4A62EAF00A0C000A1C8006B
:1001E000AED580A81FD300408D1420001E0F05003F
:1001F000047F3F1F643214643214783C1E1E140ABC
:100200000541646A757374005261697365004C6FCF
:100210007765720044656661756C74004C61796540
:10022000723A20003A002C206B0078000000000099
:1002300000FEFFFFFFFFFFFFFFFFFFFFFFFFFFFFCE
:10024000FFFFFFFFFFFFFFFFFFFFFFFFFFFFFFFFBE
:10025000FFFFFFFFFFFFFFFF0F0F0F0F0FFFFFFF5E
:10026000FFFFFFFFFFFFFFFFFFFFFFFFFFFE00009D
:10027000000000000000000000000000000000007E
:10028000000000000000000000000000000000006E
:10029000000000000000000000000000000000005E
:1002A000000000000000000000000000000000004E
:1002B00000FFFFFFFF8383838383FFFF83838383A9
:1002C000FFFF8383838383FFFF83838383FFFF8316
:1002D00083838383FFFFFFFF8282828282FFFF830B
:1002E000838383FFFF8383838383FFFFFFFF0000FC
:1002F0000000000000000000F8FCFCFC9C9CFCFCE2
:10030000F8F870000000000030787C3C9CFCFCF8A1
:10031000F00000000000C0F0F8F83C3C9CBCFCB8C9
:10032000B8A0000000000000000000000000000075
:1003300000FFFFFFFF4141414141FFFFFFFFFFFF82
:10034000FFFF4141414141FFFFFFFFFFFFFFFF4131
:1003500041414141FFFFFFFF4141414141FFFF7FDB
:100360007F7F7FFFFF4141414141FFFFFFFF0000D1
:1003700000000000000000003F3F3F3F03070F3F29
:100380003F3E382000000000383C3E3F3F3F3B39B5
:10039000380000000000070F1F3F3C383B3B3F1F69
:1003A0001F0F00000000000000000000000000001F
:1003B000007FFFFFFFF0F0F0F0F0FFFFFFFFFFFF17
:1003C000FFFFF0F0F0F0F0FFFFFFFFFFFFFFFFF097
:1003D000F0F0F0F0FFFFFFFFF0F0F0F0F0FFFFF0C3
:1003E000F0F0F0FFFFF0F0F0F0F0FFFFFF7F000013
:1003F00000000000000000000000000000000000FD
:1004000000000000000000000000000000000000EC
:1004100000000000000000000000000000000000DC
:1004200000000000000000000000000000010101C9
:1004300001010101010102020202020202020203A1
:100440000303030303030304040404040404050571
:100450000505050606060606070707070708080834
:1004600008090909090A0A0A0B0B0B0C0C0C0D0DE3
:100470000D0E0E0E0F0F0F1010111111121213137B
:100480001414151516161717181819191A1A1B1BF4
:100490001C1D1D1E1E1F2020212222232424252650
:1004A00026272829292A2B2C2D2D2E2F3031323288
:1004B000333435363738393A3B3C3D3E3F40414294
:1004C000434445464748494A4C4D4E4F505153547A
:1004D000555658595A5B5D5E5F616264656668692E
:1004E0006B6C6D6F7072737577787A7B7D7E8082AE
:1004F000838587888A8C8E8F91939596989A9C9EF7
:10050000A0A2A3A5A7A9ABADAFB1B3B5B7BABCBE06
:10051000C0C2C4C6C9CBCDCFD1D4D6D8DBDDDFE2D3
:10052000E4E7E9EBEEF0F3F5F8FAFDFFFFAA7F55FB
:10053000402223252628292A2C2D2F3032333536E8
:10054000383A3B3D3E4042434547494A4C4E505164
:10055000535557595A5C5E6062646668696B6D6F8B
:1005600071737577797B7D7F81838587898A8C8E8E
:1005700090929496989A9C9E9FA1A3A5A7A8AAAC96
:10058000AEAFB1B3B4B6B8B9BBBCBEBFC1C2C3C5D0
:10059000C6C7C9CACBCCCDCED0D1D2D2D3D4D5D672
:1005A000D7D7D8D9D9DADADBDBDBDCDCDCDCDCDDA5
:1005B000DDDDDDDCDCDCDCDCDBDBDBDADAD9D9D889
:1005C000D7D7D6D5D4D3D2D2D1D0CECDCCCBCAC921
:1005D000C7C6C5C3C2C1BFBEBCBBB9B8B6B4B3B150
:1005E000AFAEACAAA8A7A5A3A19F9E9C9A989694EB
:1005F00092908E8C8A89878583817F7D7B797775C0
:1006000073716F6D6B6968666462605E5C5A59579E
:10061000555351504E4C4A4947454342403E3D3B5D
:100620003A3836353332302F2D2C2A2928262523E7
:100630002200AF00AE05010902A10185020901A156
:100640000005091901290815002501950875018182
:10065000020501093009311581257F950275088150
:100660000609381581257F950175088106050C0A54
:1006700038021581257F950175088106C0C00501E6
:100680000980A101850319012AB700150126B700C9
:10069000950175108100C0050C0901A1018504199F
:1006A000012AA002150126A002950175108100C043
:1006B00005010906A1018506050719E029E71500CE
:1006C00025019508750181020507190029EF15001C
:1006D000250195F075018102050819012905950587
:1006E00075019102950175039101C005010906A1EB
:1006F00001050719E029E715002501950875018115
:10070000029501750881010507190029FF150026CA
:10071000FF00950675088100050819012905950552
:1007200075019102950175039101C009023B000218
:100730000100A0FA090400000103010100092111D0
:10074000010001224000070581030800010904019E
:1007500000010300000009211101000122B6000779
:100760000582032000011201000200000008534628
:1007700001000100010200010C0343006F00720040
:100780006E0065000000100366006F006F007300CC
:10079000740061006E000000040309040000000002
:1007A00000003E5B4F5B3E003E6B4F6B3E001C3ECD
:1007B0007C3E1C00183C7E3C18001C577D571C00DA
:1007C0001C5E7F5E1C0000183C180000FFE7C3E7BA
:1007D000FF00001824180000FFE7DBE7FF003048A7
:1007E0003A060E00262979292600407F05050700D4
:1007F000407F05253F005A3CE73C5A007F3E1C1CC9
:100800000800081C1C3E7F0014227F2214005F5F3A
:10081000005F5F0006097F017F00006689956A001E
:1008200060606060600094A2FFA2940008047E04EF
:10083000080010207E20100008082A1C0800081C50
:100840002A0808001E10101010000C1E0C1E0C00B0
:1008500030383E383000060E3E0E06000000000024
:10086000000000005F000000000700070000147F88
:10087000147F1400242A7F2A1200231308646200C4
:10088000364956205000000807030000001C224192
:1008900000000041221C00002A1C7F1C2A000808BE
:1008A0003E080800008070300000080808080800B2
:1008B0000000606000002010080402003E5149451D
:1008C0003E0000427F4000007249494946002141F4
:1008D000494D33001814127F100027454545390053
:1008E0003C4A49493100412111090700364949492B
:1008F0003600464949291E0000001400000000404F
:1009000034000000000814224100141414141400D0
:100910000041221408000201590906003E415D59B8
:100920004E007C1211127C007F49494936003E413D
:10093000414122007F4141413E007F4949494100F8
:100940007F09090901003E41415173007F080808F1
:100950007F0000417F4100002040413F01007F08AF
:10096000142241007F40404040007F021C027F0073
:100970007F0408107F003E4141413E007F09090984
:1009800006003E4151215E007F0919294600264993
:100990004949320003017F0103003F4040403F00CE
:1009A0001F2040201F003F4038403F0063140814C0
:1009B00063000304780403006159494D4300007F3C
:1009C00041414100020408102000004141417F00E4
:1009D00004020102040040404040400000030708B8
:1009E00000002054547840007F28444438003844A4
:1009F00044442800384444287F0038545454180094
:100A000000087E0902001824241C78007F080404D2
:100A1000780000447D4000002040403D00007F10F1
:100A20002844000000417F4000007C0478047800E6
:100A30007C08040478003844444438007C1824249A
:100A40001800182424187C007C080404080048546A
:100A50005454240004043F4424003C4040207C00C3
:100A60001C2040201C003C4030403C004428102802
:100A700044004C9090907C004464544C4400000826
:100A800036410000000077000000004136080000F9
:100A90000201020402003C2623263C000000000064
:100AA000000000000000000000000000C0E0F0F8BE
:100AB000F81800C0F0FCFEFFFFFFFFFFFFFF7E0005
:100AC000000000000000000080C0E0E0E0E0E0E0A6
:100AD000E0E0C0800000000080C0E0E0E0E0E0E096
:100AE000E0E0C080000000E0E0C0C0E0E0E0E00046
:100AF00000E0E0C0C0E0E0E0E0E0C0800000000016
:100B000080C0E0E0E0E0E0E0E0E0C0800000000065
:100B100000000000000000000000E0F0F0F0E0EC59
:100B2000EEF7F37020007C7C7C7E007E7E7E7F7FF3
:100B30007F000080C0E07E5B4F5BFEC00000C00015
:100B4000DCD7DEDEDED7DC00C000000000000000E5
:100B50000000000000000000000000000000000095
:100B60000000000000F8FCFEFFE000FFFFFFFFFFB9
:100B7000FF80FFFFFFFFFFFFFFFFFF1F07010000D8
:100B800000000000000000FFFFFF810000000000E7
:100B90000081C3C3C30000FFFFFF8100000000000D
:100BA0000081FFFFFF0000FFFFFF010000000000C9
:100BB00000FFFFFF010000000001FFFFFF0000FF3A
:100BC000FFFF9D1C1C1C1C1C1C9DDFDFDF000000A8
:100BD000000000000000000000000F1F3F7F7F7F2B
:100BE0007F7F3F1E0C001F1F1F3F003F3F3F7F7F47
:100BF0007F00307B7F7830202030787F3B000300FF
:100C00000F7F0F0F0F7F0F00030000000000000098
:100C100000000000000000000000000000000000D4
:100C20000000000000030F1F3F3F3F3F1F1F3F3FDB
:100C30007F7F7F3F3F1F3F7F7F7F7F7C7878381C9F
:100C40000F00000000000000010307070707070767
:100C50000707030100000000010307070707070754
:100C6000070703010000000707070000000000005D
:100C7000000707070000000000000707070000004A
:100C80000103070707070707070703010000000024
:100C90000000000000000000000000000000000054
:100CA0000000000000000000000000000000000044
:100CB0000000000000000000000000000000000034
:100CC0000000000000000000000000000000000024
:100CD00000000000000000000000000011241FBE02
:100CE000CFEFDAE0DEBFCDBF04B603FE18C08091BF
:100CF0003F0790914007A0914107B091420787308C
:100D0000904BA740B04B59F410923F071092400708
:100D10001092410710924207E0E0F8E3099527E0BE
:100D2000ACEFB1E001C01D92AF33B207E1F711E0C3
:100D3000A0E0B1E0E2EDF5E602C005900D92AC3F17
:100D4000B107D9F70E9424280C94D1320C940000EA
:100D50008F929F92AF92BF92CF92DF92EF92FF92CB
:100D600090914F01981305C090913305903209F48A
:100D70004BC080934F0190E290933305C82ED12C45
:100D8000F12CE12C10923205C701B6012AE030E0C7
:100D900040E050E00E94A032605D603331F0C11449
:100DA000D104E104F10409F460E26093310560E2EA
:100DB0008AE0C816D104E104F10490F08AE0882E9C
:100DC000912CA12CB12CC701B601A50194010E9460
:100DD000A032CA01B901A50194010E94A032605D50
:100DE0006093300520E284E6C816D104E104F104E2
:100DF00048F0C701B60124E630E040E050E00E9430
:100E0000A032205D20932F058FE295E0FF90EF90B8
:100E1000DF90CF90BF90AF909F908F900895FC018E
:100E2000AC014C5F5F4F8FEF91E32191822728E067
:100E300030E087FF09C0880F892721503109C9F7A1
:100E4000E417F50791F70895880FF7CFE8EDF0E084
:100E500080818E7F80831092E2001092DA001092DF
:100E6000E100A0EEB0E08C9181608C9380818F775F
:100E7000808319BCA7EDB0E08C918E7F8C9380812C
:100E80008F7E80831092FD0408952091E4003091BC
:100E9000E50095E6A9012091EC00822F817020FFEA
:100EA00006C08091E80080FF06C080E00895209190
:100EB000E80022FD1AC080912205882389F0853040
:100EC00089F08091EB0085FD0FC02091E400309106
:100ED000E50042175307F9F29150E1F684E00895D6
:100EE00082E0089583E0089581E00895EF92FF92F3
:100EF0000F931F93CF937C018B010E944507C82F4E
:100F0000811117C08091E80085FD0BC08091E80039
:100F10008E778093E8000E944507882399F3C82FB5
:100F200008C0F70181917F018093F1000150110900
:100F300049F78C2FCF911F910F91FF90EF9008955B
:100F40008091240587FF13C08091E80082FF06C0CE
:100F50008091E8008B778093E80004C0809122059F
:100F60008111F2CF0895809122058823D9F38091D1
:100F7000E80080FFF8CF8091E8008E77ECCF982FC3
:100F80009093E900242F762F50E0891731F070916B
:100F9000EC002091ED005091F00021FD07C09F5F13
:100FA000973071F78093E90081E008953091EB006C
:100FB0003E7F3093EB003091ED003D7F3093ED00AC
:100FC0003091EB0031603093EB007093EC00209394
:100FD000ED005093F0002091EE0027FDE0CF80E07F
:100FE0000895B0E0A0E0E7EFF7E00C942E31C8EDF3
:100FF000D0E088818F7E8883E7EDF0E0808181609A
:10100000808384E082BF81E08093FD0488818E7FAD
:10101000888302EE10E0F80110821092DA0081EE6F
:10102000C82ED12CF601108288818F778883888121
:101030008068888388818F7D888319BC10922205FF
:1010400010922305109221051092200590EEE92EB2
:10105000F12CF70180818B7F808388818160888378
:1010600042E060E080E00E94BF07F60180818E7F51
:101070008083F801808181608083808188608083A3
:10108000F70180818E7F8083888180618883CDB7DE
:10109000DEB7E8E00C944A31FC0180912A0590917A
:1010A0002B0586179707A0F06115710529F490911B
:1010B000E8009E779093E80090E06115710551F487
:1010C000911108C08091E80082FF34C080E008954B
:1010D000BC01F2CF809122058823C1F18530C1F196
:1010E0008091E80083FD30C08091E80082FDEACF66
:1010F0008091E80080FFE1CF8091F3002091F20021
:10110000382F6115710519F02830310558F091E03C
:101110002830310509F090E02091E8002E772093E7
:10112000E800CBCF81918093F100615071092F5F6E
:101130003F4FE7CF80912205882341F0853041F071
:101140008091E80083FFBECF81E0089582E008959A
:1011500083E0089508958091FF0408952FB7F894CF
:101160006091F4047091F5048091F6049091F70475
:101170002FBF089520914E012223C9F02091F80439
:1011800027FF15C0E62FE695E695E695EE31D8F4F3
:10119000E80FF92FF11D677021E030E001C0220F48
:1011A0006A95EAF720958281282322830895FC011D
:1011B000329608962191621303C0DF0111971C92A9
:1011C000E817F907B9F7089520914E012223C1F0DD
:1011D0002091F80427FF14C0E62FE695E695E695E2
:1011E000EE31F8F4E80FF92FF11D677021E030E0DF
:1011F00001C0220F6A95EAF78281822B82830895CB
:10120000FC0132962FEF30E04191641751F02F3FEF
:1012100019F4411101C0232F3F5F3630A9F72F3F4A
:1012200009F40895820F911D27FD9A95FC016283B0
:1012300008952091F1043091F2042817390771F0D4
:101240009093F2048093F104E091EF04F091F004A4
:10125000309721F00084F185E02D099508952091C3
:10126000ED043091EE042817390771F09093EE04E5
:101270008093ED04E091EF04F091F004309721F0B9
:101280000680F781E02D09950895FA01811101C0CA
:10129000FB01099508950895ECE2F3E01182828143
:1012A0008460828308958091E204982F9E7F61F488
:1012B000817082608093E2048091E504893718F0A0
:1012C00088E78093E50408958635B0F381708465DE
:1012D000F1CFAF92BF92DF92EF92FF920F931F93E5
:1012E000CF93DF93182F062FE901493708F048E71D
:1012F000E42FF0E0E45DFB4F011110C0E4915E2F9C
:101300004E2F4983E8835A83DF91CF911F910F912C
:10131000FF90EF90DF90BF90AF900895202F30E0C6
:101320004491D42EE42EF12C56E0159FC0011124D7
:10133000EFEFF0E0BF010E941031812F90E0880FA5
:10134000991F55E5569FD001579FB00D11248A1B58
:101350009B0B982F990F890F5F01A21AB30AAE9CBD
:10136000D001AF9CB00DBE9CB00D11245B2F089F27
:1013700080011124012F11275F01A01AB10AAE9C30
:101380008001AF9C100DBE9C100D11245F01A81AA6
:10139000B108A29EC001A39E900DB29E900D112493
:1013A000892F9927E81BF90BEE9DC001EF9D900D49
:1013B000FE9D900D1124E92F62307105A1F050F4CB
:1013C0006115710509F49DCF6130710581F0EB2F36
:1013D000512F97CF6430710569F080F06630710548
:1013E00009F48FCFF4CFE42F4B2F592F8ACFE42F5E
:1013F000412F87CFEB2F542F492F83CF4B2F5D2DBC
:10140000E12F7FCF409122038D3E59F48091230339
:1014100087FF0DC01092230341110BC010921A03D5
:1014200008C08E3E81F48091230318169CF3442358
:1014300081F08091240390912503892B09F05AC0F3
:101440001092190308958F3E49F447FFF0CF109290
:101450002203809123038111ECCFE0CF803F19F468
:101460001416ACF3E4CF90912403893F29F41916A4
:10147000F4F610922403DBCF8A3F19F497FFD7CFFD
:10148000F8CF909125038B3F29F497FFD0CF10928E
:101490002503CDCF8C3F19F41916CCF3C8CF9FE0AC
:1014A000980F983090F4815F990B21E030E0B901FA
:1014B00002C0660F771F8A95E2F7CB018095909165
:1014C0002103892380932103B2CF8D3F31F4809192
:1014D0001B038E7F80931B03AACF8E3F21F4809144
:1014E0001B038D7FF7CF8F3F09F0A1CF80911B03A6
:1014F0008B7FF0CF089580911B0380FD16C081FD86
:1015000016C082FD16C0809119038823A1F088328D
:1015100080F428E0829FC001112468E270E00E94FC
:101520007531862F672B39F0089582E0089584E0A5
:10153000089588E0089581E0089580911B0380FD5F
:1015400014C081FD14C082FD16C080911A03882347
:1015500081F08E3180F420E5829FC00111246EE17C
:1015600070E00E947531862F089584E1089588E225
:10157000089588E0089580E508958D3E31F40E9435
:101580009D0A81958093230308958E3E19F40E944D
:101590009D0AF8CF8F3E31F40E949D0A8195809379
:1015A00022030895803F19F40E949D0AF8CF893FD5
:1015B00029F40E947B0A8093240308958A3F21F432
:1015C0000E947B0A8195F7CF8B3F31F40E947B0A02
:1015D00081958093250308958C3F19F40E947B0A1E
:1015E000F8CF9FE0980F983070F4815F990B21E05D
:1015F00030E001C0220F8A95EAF780912103822B07
:101600008093210308958D3F31F480911B03816005
:1016100080931B0308958E3F21F480911B03826009
:10162000F7CF8F3FB9F780911B038460F1CF80E043
:101630000895F894E82FE295EF70F0E031A1282F9B
:101640002F7081E090E001C0880F2A95EAF7982F6B
:101650009095932391A392A1892B82A378940895C6
:101660009091F80492FF06C0282F28712830F9F4D1
:10167000877F846093FF06C0282F28712831F1F4FA
:10168000877E84612091F90420FF06C0382F3871CD
:101690003830D9F4877F816021FF06C0282F287158
:1016A0002831D1F4877E816194FD877E0895282FAB
:1016B00024712430F9F68B7F8860DCCF282F2471C9
:1016C000243101F78B7E8861DDCF382F31713130C5
:1016D00019F78E7F8860E0CF282F2171213121F703
:1016E0008E7E8861E1CF972F7830A8F4663098F429
:1016F00070E026E0929F600D711D1124FB0190E3C4
:10170000899FE00DF11D1124EE0FFF1FE455FF4FDF
:1017100085919491089580E090E00895CF93DF93B0
:10172000EC0182389105B1F108F040C08133910598
:1017300009F49DC048F58932910509F48DC08A9756
:1017400009F49CC0C11521E5D20708F0C3C0C1153A
:1017500030E5D30708F01EC1C83ED10508F0A3C08C
:10176000C03ED10588F5C83AD10508F08EC0C53A0B
:10177000D10508F007C1C130D10531F1209721F121
:10178000C430D10508F545C08533910509F45FC023
:10179000C997C1F68091F804837009F043C1809124
:1017A000F90483FF11C0C9E2D0E00EC0833E910569
:1017B00099F170F4803E910501F1823E910511F698
:1017C0008091F80482FD21C0CE01DF91CF91089570
:1017D000863E910561F1873E910571F1843E910548
:1017E00009F0B0CF8091F90481FFEECF8091F80429
:1017F000C7EED0E084FD0DC0E7CF8091F80480FDF6
:1018000033C09091F90490FFDFCFC3EED0E084FFA6
:10181000DBCFD0E0C0E0D8CF8091F80482FDFFC0DC
:101820009091F90490FDFEC084FFCECFF2CF80915D
:10183000F80483FDDDCFC8CF8091F80483FDF5C0A7
:101840009091F90491FFF0CFC4EED0E0BDCF80912C
:10185000F80485FFB9CFA7CF8091F80485FDE8C0D3
:101860008091F90483FFB0CFC9E3D0E0ADCF809180
:10187000F80486FFA9CFCAE2D0E0A6CF8091F80491
:1018800086FFA2CFC1E3D0E09FCFCF3BD10508F6C2
:10189000C85AD0E0CC0FDD1FC157DE4F0990D88168
:1018A000C02DD46491CFC11540E2D40758F4C115BE
:1018B00081E0D80708F088CFCD3ED10508F4A9CF44
:1018C000D06582CFC11520E4D20708F4A2CFDF7023
:1018D000D06A7ACFC11535E5D30718F5C11544E5AF
:1018E000D40708F084C0C11583E5D80708F06BC0A1
:1018F000C11522E5D20708F461C0CE018370992793
:1019000021E030E002C0220F331F8A95E2F7C6952E
:10191000C69580E2C89FE0011124C22BD32BDC685E
:1019200053CFC11539E5D307A8F4C11548E5D4074D
:1019300008F062C0C11586E5D80708F06ACF8C2F81
:101940000E94300BC82FD0E0DC2FCC27CC27DF71D2
:10195000D0623ACFC1152AE5D20708F452C0CE01B1
:1019600090568115904208F054CF8D2F8F710E94B0
:10197000300B90E0982F882788279F719C012C2B93
:10198000E901E6CFC55AD0E0C457DE4FC881D0E0A8
:10199000D0641ACFCE018370992721E030E002C0D5
:1019A000220F331F8A95E2F7C695C69540E2C49F81
:1019B000E0011124C22BD32BDD6806CFDC2FCC270E
:1019C000C16FD06A01CFCE018370992721E030E04A
:1019D00002C0220F331F8A95E2F7C695C69540E2F2
:1019E000C49FE0011124C22BD32BDA68EDCEDC2F8B
:1019F000CC27C46FD06AE8CEDC2FCC27C06FD06A6A
:101A0000E3CE8C2F8F700E94300B34E0D695C795B3
:101A10003A95E1F7CF709C2FEC01D069D5CEC2EE9C
:101A2000D0E0D2CEC0EED0E0CFCEC6EED0E0CCCE6D
:101A3000C5E3D0E0C9CE809192028111109292024A
:101A40000895809590919102982390939102089522
:101A500080916E0290913D02981301C008958F5FAE
:101A60008770FACFB0E0A0E0E8E3FDE00C942D3100
:101A70007C010091E7021091E8028091930290911D
:101A80009402082B192BCFE0D0E0CC24C394D12CA6
:101A9000BC2EC6010C2E02C0880F991F0A94E2F7D3
:101AA00080239123892B49F4219790F7B12C8B2D1A
:101AB000CDB7DEB7E9E00C944931B7018C2F0E9415
:101AC000730B0E948E0B019779F3F1CFCF93DF93C5
:101AD000EC010E94320DBE010E94730B0E948E0B1E
:101AE000DF91CF910895983078F5863068F5E82F2A
:101AF000F0E086E0989FE00DF11D11249E2F977075
:101B000083E0F695E7958A95E1F7EE0FFF1FEE0F5C
:101B1000FF1FE15EFD4F50E040E080E0219130E0AA
:101B2000092E02C0369527950A94E2F721703327D3
:101B3000042E01C0220F0A94EAF7822B4F5F5F4FF9
:101B40004430510559F7089580E00895983098F58C
:101B5000863088F5E82FF0E086E0989FE00DF11DD3
:101B600011248E2F877041E001C0440F8A95EAF757
:101B700083E0F695E7958A95E1F7EE0FFF1FEE0FEC
:101B8000FF1FE15EFD4F30E020E070E05191DF018A
:101B90001197CB01022E02C0969587950A94E2F721
:101BA000817081958527842385278C932F5F3F4FF4
:101BB0002430310559F70895FC0183819481892BE4
:101BC00029F08081918189238F3F51F480E008952D
:101BD000843FE1F717C0883EA8F0813FB9F712C0F3
:101BE000808191810E94660D92959F70963099F345
:101BF00058F4925F9F70923048F7803F19F040F799
:101C0000883E20F781E008959A5FF4CFCF93DF9369
:101C1000682F81E06A3019F06D3031F480E00E9465
:101C2000940EDF91CF91089580913D0790913E07EA
:101C300026E0FC01A7E3B7E001900D922A95E1F7B9
:101C4000603E08F458C026E0FC0111922A95E9F79D
:101C5000C0913D07D0913E0746E050E0BE0187E3CA
:101C600097E00E9410329E0127533540892B41F1A5
:101C7000C90145E0969587954A95E1F741E050E026
:101C8000BA0102C0660F771F8A95E2F7CB01609117
:101C9000350570913605862B972BB9016B5F7F4F09
:101CA000E5E076956795EA95E1F702C0440F551F88
:101CB0006A95E2F7842B952B909336058093350532
:101CC0002A5F3F4F40913405642F70E0C9010E94A4
:101CD0001031481B463010F4240F311D211572E0DD
:101CE000370710F030E020E0295C3A4F30933E0790
:101CF00020933D0796CFF6E06F9FB0011124645604
:101D0000784F46E050E00E94FA31A2CFCF93DF93A4
:101D1000EC01FE018491811103C0DF91CF91089500
:101D20000E94060E2196F5CFCF93382FE0913D0704
:101D3000F0913E07E753F54020913405622F70E0A3
:101D4000CF010E941031281B822F332361F066E0FF
:101D50000E945B31C82FC15010F4CF91089580E2EA
:101D60000E94060EF8CF9F01280F311D2115324029
:101D700018F080E0F0E0E0E08E0F9F2F911D895C6D
:101D80009A4F90933E0780933D07E7CF8091910251
:101D900090919002892B8093FE0190919202992359
:101DA000A1F0892B8093FE0180914E018823E1F1FF
:101DB0008091F80487FF38C08EE1E0E0F2E090E027
:101DC0008150A0F591110E941B0D40E250E060E7A8
:101DD00072E08EEF91E00E941032892B21F180E2B7
:101DE000EEEFF1E0A0E7B2E001900D928A95E1F705
:101DF000E091EF04F091F0043097A9F080914E014A
:101E0000882359F08091F80487FF07C08091FE0174
:101E10008093FF0186E08093FE010280F381E02D34
:101E20008EEF91E00995089586E0C7CF2191222396
:101E300039F29F5FC5CF882321F00E94210D0E94B7
:101E4000C60E0895882339F090919102982B9093B3
:101E500091020E94C60E08950F931F93CF93DF93B4
:101E6000EC01FC0101900020E9F78F0101501109FC
:101E7000C017D10728F0DF91CF911F910F910895DE
:101E800089910E94060EF4CF8093FA047093FC04AB
:101E90006093FB0480912205843001F582E08093F9
:101EA000E9008FEF9091E800815095FD06C095ED17
:101EB0009A95F1F700008111F5CF8091E80085FF38
:101EC0000DC050E040E063E070E08AEF94E00E94D3
:101ED00076078091E8008E778093E8000895BC0132
:101EE00084E00E94440F0895BC0183E00E94440FE7
:101EF00008959C0182E08093E9009FEF8091E800C3
:101F0000915085FD06C085ED8A95F1F7000091118D
:101F1000F5CF8091E80085FF0CC050E040E066E01E
:101F200070E0C9010E9476078091E8008E77809367
:101F3000E8000895CF93DF93EC0180914E01882350
:101F4000B1F18091F80487FF32C060E282E08093B3
:101F5000E9008FEF9091E800815095FD06C095ED66
:101F60009A95F1F700008111F5CF8091E80085FF87
:101F70001BC080914E0170E050E040E0811104C030
:101F800050E040E068E070E0CE010E94760780916A
:101F9000E8008E778093E80080E2FE01A0E0B5E0E3
:101FA00001900D928A95E1F7DF91CF91089568E055
:101FB00081E0CDCF81E08093E00080E28093D80083
:101FC0001092C9008FE19EE40197F1F700C0000074
:101FD00087E090EBDC0180933F0790934007A0934C
:101FE0004107B093420788E19CE00FB6F894A895AA
:101FF000809360000FBE90936000FFCF60914A0114
:102000008091E20480FF20C08091490143E0849FD9
:10201000C00111248E5C9C4F539A2BB1277F3BB19A
:1020200038605FB7F894FC01649FE00DF11D112446
:10203000BF0168177907D1F45FBF8FE594E001977E
:10204000F1F700C00000089580914B0190914C0180
:1020500023E0829FF0011124EE5CFC4F8917A0F66B
:102060001182108212828F5F3396F8CFFC0141916A
:10207000CF01E8E03BB9000000C047FF2BB9440F97
:10208000000000C000C000C02BB900C0EA9591F765
:10209000D0CF0F931F93CF93DF93EC0110E000E0BC
:1020A00090914D019017110609F06CF40E94FE0FFB
:1020B0008C8190E00196817099278C83DF91CF917C
:1020C0001F910F91089520914B01A801420F511DBE
:1020D0009A01220F331F240F351F2E5C3C4F4C8179
:1020E0006091E4048091E30496959017110651F0F5
:1020F0004CF0442349F04091E5040E9469090F5FC8
:102100001F4FCECF4423B9F340E0F7CFB0E0A0E0BB
:10211000ECE8F0E10C942A31EC014C81042F10E042
:102120009801D8010E94C2329B01AC010E948D32FD
:102130004B015C01E0E2F0E0E01BF10BA5E5B0E053
:10214000AC019B010E948D326B017C019F01DF017C
:102150000E948F319B01AC010E9498329B01AC011F
:10216000280D391D4A1D5B1DC701B6010E94A03212
:10217000F22E822F90E039E23F1520F143E0249FB8
:102180009001112435952795122F109500E085E5D3
:10219000E82EEF1880914D01081718F10E94FE0FEC
:1021A0009C8181E0992319F0903219F48FEF80938C
:1021B000480180914801890F8C83CDB7DEB7ECE0F0
:1021C0000C94463125E530E0B901681B790B9B0181
:1021D000220F331F260F371F37FFD4CF2F5F3F4FFC
:1021E000D1CF8E2D01FD8F2D20914B01622F600FDD
:1021F0007727771F9B01220F331F260F371F2E5C77
:102200003C4F412F6091E4040E9469090F5FC2CFE7
:10221000EF92FF920F931F93CF93DF93EC018C818A
:10222000811109C081E08C831092300392E0909379
:1022300047018093460180914B0190914C0123E02E
:10224000829FF0011124EE5CFC4F891758F110E0D9
:1022500003E060914D01161758F10E94FE0F809126
:10226000460120913003280F2093300390914701BD
:10227000980F90934701191654F4022E000C330B5B
:1022800040914D014150550B2417350734F081958D
:1022900080934601813009F41C82CDB7DEB7E6E0B9
:1022A0000C944C311182108212828F5F3396CDCF05
:1022B000E12EF12C70E0C7010E94753120914B0195
:1022C000820F482F50E020913003022E000C330B78
:1022D000E216F306BCF020914701022E000C330BEE
:1022E0002E153F057CF0809F900111242E5C3C4F01
:1022F0004091E5046091E4048091E3040E9469093F
:102300001F5FA7CFFA01EE0FFF1FE40FF51FEE5C72
:10231000FC4F118210821282F3CFB0E0A0E0E3E91B
:10232000F1E10C942A31EC018A81BB24BA9480FD3E
:1023300002C0BB24B394A0904D018C81811109C0CF
:1023400081E0B81220C08FEF8A0D80932F0381E0C7
:102350008C83F12CE12C46E3942EEA14B8F00E9411
:10236000FE0F80912F0391E0B91257C0811150C028
:1023700080914D01815080932F031C82CDB7DEB731
:10238000ECE00C94463110922F03E1CF00914B0109
:102390000E0D1F2D111DC801880F991F080F191F41
:1023A0000E5C1C4FF80111821082128234E0C32EA1
:1023B000D12C812C80912F03880D87332CF1692D2E
:1023C0000E946731892F082E000C990B8E159F05EE
:1023D00091F48091E5048C9DA0018D9D500D1124F8
:1023E000559547955595479598016091E4048091DE
:1023F000E3040E9469098B0CF1E0CF1AD108D1F6F1
:102400008FEFE81AF80AA9CF87FFDDCF8A0DDBCF5F
:10241000815080932F03BC82B1CF90E001966091F0
:102420004D0170E00E94753180932F038C83A6CFFD
:10243000EF92FF921F93CF93DF93EC0110E0EE2415
:10244000EA94F12C60914D01161770F00E94FE0F76
:102450009A818C8190FF27C08F5F8C83DF91CF9111
:102460001F91FF90EF90089520914B01422F410F53
:102470005527551FCA019A01220F331F280F391FF4
:102480002E5C3C4F70E0C7010E947531962F8C8105
:102490004091E5046091E404199F800D11240E948D
:1024A00069091F5FCFCF8150D8CF9091E20490FF90
:1024B0000EC090914B0120914C0133E0939FF001AD
:1024C0001124EE5CFC4F921718F00E94FE0F089545
:1024D0008183608342839F5F3396F5CFA3E0B0E0B2
:1024E000E4E7F2E10C9432318C01809131038111E7
:1024F0000AC09E012F5F3F4F48E76FEF0E946909B6
:102500008A8180933103F8016481613069F08091A0
:10251000310340E0662361F040E0623011F4409105
:10252000310380E060E004C06091310340E080E06E
:102530000E945512F801848190E0019663E070E0FA
:102540000E94753184832396E4E00C944E31A3E01D
:10255000B0E0EDEAF2E10C9434319091E20490FFA6
:102560000AC09E012F5F3F4F0E9469094B8169811C
:102570008A810E9455122396E2E00C945031CF9349
:10258000DF93EC01E2EEF4E0438162818C810E94F2
:10259000A7128C818F5F8C83DF91CF910895CF93A9
:1025A000DF93EC01EC81F0E0EF5CFA4F4491E2EE56
:1025B000F4E0628181810E94A7128C818F5F8C83FD
:1025C000DF91CF910895B0E0A0E0E9EEF2E10C9444
:1025D0002C317C015B016A018091C10201E010E0B5
:1025E0008A3010F40AE010E0C1E0D0E0B501C70184
:1025F000F6010995811104C021960C171D072CF4D2
:10260000CDB7DEB7EAE00C944831CC9F9001CD9F66
:10261000300D300D112490E080E045E34A95F1F74C
:102620000000019682179307C1F7E0CF80919F02C7
:10263000811119C088EC90E02091E30027FD10C0C3
:10264000EFE3FCE93197F1F700C000000197A1F733
:1026500082E080939F020E9426071092220503C009
:1026600081E080939F0281E090919F02913011F070
:1026700080E0089508950E941613882359F0E09190
:10268000EF04F091F004309729F00190F081E02DF3
:102690000995089580E008950F931F930E941613E3
:1026A000882329F00E94AE081F910F9108950E947F
:1026B000AE080091C2021091C3022091C402309171
:1026C000C502600F711F821F931FEECFB0E0A0E024
:1026D000ECE6F3E10C942E316C017B0164E670E0D2
:1026E00088E70E946E2EEC0197FD12C010E000E01A
:1026F000F601E00FF11F849164E670E00E94DA2E8B
:10270000EC01892B29F40F5F1F4F0E151F0581F770
:102710000E94502FCE01CDB7DEB7E8E00C944A31CD
:102720008091EB049091EC04911103C091E0892712
:102730000895882369F062E070E083E396E00E94E8
:102740006613892B19F08091EB0408951092EB0425
:102750008091EB04EBCFCF93C091EB048091EC041C
:102760008823D1F00E94AE08605A75418F4F9F4F69
:102770006093E7047093E8048093E9049093EA047B
:10278000C11108C062E070E081E396E00E94661328
:10279000892B29F0C091EB048C2FCF91089581E013
:1027A0008093EB04F7CFB0E0A0E0E9EDF3E10C9407
:1027B0002631FC016280448081E08483E1E3F5E01E
:1027C0007490E0EBF5E0E491812C75E0972EF2E057
:1027D000CF2EDD24D394AA24AA94B12C55245A9444
:1027E000E7190E2F10E080914D01881638F00E94F5
:1027F000FE0FCDB7DEB7E0E10C944231E82CF12CAE
:1028000082E0861568F09E9CF0019F9CF00D1124DB
:10281000EC52FC4F8091E30480838091E404818337
:10282000411023C09E9CF0019F9CF00D1124EC529E
:10283000FC4F1382128220914B01C701820F911D20
:102840009C01220F331F280F391F2E5C3C4F9E9C8A
:10285000F0019F9CF00D1124EC52FC4F42816181EC
:1028600080810E9469098394BECF9E9CE0019F9C59
:10287000D00D1124CC52DC4F8B818823E9F081509C
:102880008B83859DC00111246C8170E00E94103102
:10289000FB01FF27EF5CFA4F8491E82FE719E59DD4
:1028A000C0011124B8010E9410318091E504689F95
:1028B000B00111247A83BFCF0E94EA312091E50450
:1028C000269521582C9DA0012D9D500D1124452F9A
:1028D0005527841795070CF0AECF82E0861588F453
:1028E0000E94EA31B5010E94753188830E94EA3165
:1028F0002091E4042695622F70E00E947531280F24
:1029000029839E9CF0019F9CF00D1124EC52FC4FFA
:1029100012828091E504893C58F088EC9E9CF0017D
:102920009F9CF00D1124EC52FC4F8483838383CF52
:102930008431A0F784E1F2CFCF92DF92EF92FF9241
:102940006B017C010E945309B701A60188E090E069
:102950000E944C32FF90EF90DF90CF900895A3E05B
:10296000B0E0E5EBF4E10C942D31082FD62EF42ED7
:10297000C22E9091E20490FF3AC0E92FE695AE2F67
:10298000B0E0AF52BE4F8C9180932C039E7F92306B
:1029900091F59E012F5F3F4F802F0E9469094B8167
:1029A00069818A810E9455128091E304801308C0D6
:1029B0008091E4048D1104C08091E5048F1529F005
:1029C00080912E03826080932E030093E304D092C3
:1029D000E404F092E504CC2051F06091E20470919F
:1029E000E3048091E4049091E5040E949C142396F2
:1029F000E9E00C944931823019F4F090E504D4CF29
:102A0000863019F40091E304CFCF8930D9F38931AE
:102A100059F6E9516E2F6170B62EE695F0E0E45D4F
:102A2000FA4F1491E12C60914D01E61618F00E94C6
:102A3000FE0FBACFE19EC001112470E00E94103158
:102A4000802FB11014C0860F20914B01622F6E0DA4
:102A50007727771F9B01220F331F260F371F2E5C0E
:102A60003C4F4F2D6D2D0E946909E394DCCF861BEE
:102A7000EBCFE2EEF4E0438121E1421B08F440E0B9
:102A800021E0628181810E94AF140895E2EEF4E0BA
:102A9000438121E1420F08F44FEF21E062818181FF
:102AA0000E94AF140895E2EEF4E0628121E1621B1E
:102AB00008F460E021E0438181810E94AF14089511
:102AC000E2EEF4E0628121E1620F08F46FEF21E0B1
:102AD000438181810E94AF140895E2EEF4E0818188
:102AE00021E04381628188500E94AF140895E2EE94
:102AF000F4E0818121E043816281885F0E94AF140C
:102B000008958091E604882319F081508093E604AB
:102B10006091E2047091E3048091E4049091E504F3
:102B20000E949C1408958091E604833018F48F5F0E
:102B30008093E6046091E2047091E3048091E404E0
:102B40009091E5040E949C140895E2EEF4E083E085
:102B5000808311828FEF828388E783831482ACE2C3
:102B6000B3E012968C911297836012968C936081D9
:102B70007181828193810E949C140895CF9384E097
:102B800090E00E942632C82F82E290E00E94263216
:102B9000982F8C2FCF910895A4E0B0E0E2EDF5E1FD
:102BA0000C9433314091A8025091A9026091AA027D
:102BB0007091AB022FB7F8948091F4049091F504D2
:102BC000A091F604B091F7042FBF841B950BA60BC0
:102BD000B70B11E084369105A105B10570F10E9493
:102BE0004C136E5F7F4F8F4F9F4F69837A838B8328
:102BF0009C83809115019091160184559D4F4091C1
:102C0000140150E04530510510F044E050E0BE01A1
:102C10006F5F7F4F0E941D3282E090E00E949A30E9
:102C2000182F882351F00E94AE086093A802709379
:102C3000A9028093AA029093AB02812F2496E3E02D
:102C40000C944F31A8E0B0E0E8E2F6E10C943431A6
:102C500085E0E2EEF4E0DE01119601900D928A9596
:102C6000E1F780912C0390912D03A0912E038E8388
:102C70009F83A88728854091BD025091BE02609134
:102C8000BF027091C0023FB7F8948091F404909114
:102C9000F504A091F604B091F7043FBF841B950B97
:102CA000A60BB70B84369105A105B10510F42223BC
:102CB00019F180911D0190911E0184559D4F409105
:102CC0001C0150E04930510510F048E050E0BE01D1
:102CD0006F5F7F4F0E941D3283E090E00E949A3028
:102CE000882369F00E94AE086093BD027093BE0213
:102CF0008093BF029093C00210922E0381E0289629
:102D0000E2E00C945031EF92FF921F93CF93DF9348
:102D100000D000D00F92CDB7DEB77B0190E080E00D
:102D20000E949A30182F882309F46DC04091070142
:102D300050E04115510511F041E050E0609108016B
:102D40007091090164557D4FCE0105960E941D3298
:102D50004091A4025091A5026091A6027091A70231
:102D60002FB7F8948091F4049091F504A091F604A3
:102D7000B091F7042FBF841B950BA60BB70B8436BD
:102D80009105A105B10538F48DEA92E00E940F0784
:102D90009D818917C1F181E090E00E949A308823DB
:102DA00009F458C040910F0150E04530510510F032
:102DB00044E050E0609110017091110164557D4F25
:102DC000CE0101960E941D328DEA92E00E940F070B
:102DD0009D8189133FC00E94AE086093A402709346
:102DE000A5028093A6029093A70289819A81AB8164
:102DF000BC818093A0029093A102A093A202B09301
:102E0000A30211E00EC08091AD029091AE02A0919C
:102E1000AF02B091B00289839A83AB83BC83111156
:102E2000E4CF8091A0029091A102A091A202B09162
:102E3000A302F70180839183A283B383812F0F9034
:102E40000F900F900F900F90DF91CF911F91FF90F7
:102E5000EF90089510E0E5CF68EE7EEF90E080E01F
:102E60000E94583260E082E090E00E943A3260E0D6
:102E700083E090E00E943A32109294021092930202
:102E800060E084E090E00E943A3264E082E290E008
:102E90000E943A3260E085E090E00E943A3260E0C1
:102EA00086E090E00E943A326FEF87E090E00E9467
:102EB0003A3240E050E0BA0188E090E00E944C32A3
:102EC00060E08DE090E00E943A3240E050E0BA01CC
:102ED00088E190E00E944C3260E087E190E00E943F
:102EE0003A3240E050E0BA018CE190E00E944C326E
:102EF00070E060E080E290E00E94583240E050E0F4
:102F0000BA0188E190E00E944C3240E050E0BA0102
:102F10008FE090E00E944C3240E050E0BA0183E143
:102F200090E00E944C3208951F920F920FB60F92BC
:102F300011242F933F934F935F936F937F938F93BE
:102F40009F93AF93BF93EF93FF938091E10082FF34
:102F500009C08091E20082FF05C08091E1008B7F73
:102F60008093E1008091DA0080FF24C08091D80036
:102F700080FF20C08091DA008E7F8093DA008091FC
:102F8000D90080FF9DC080E189BD82E189BD09B47F
:102F900000FEFDCF81E0809322058091FD04811128
:102FA00009C00E9426070E94F1078091E200846018
:102FB0008093E2008091E10080FF17C08091E200E1
:102FC00080FF13C08091E2008E7F8093E2008091A9
:102FD000E20080618093E2008091D800806280935B
:102FE000D80019BC85E0809322058091E10084FF20
:102FF0002BC08091E20084FF27C080E189BD82E17F
:1030000089BD89B5982F917080FFFBCF8091D80042
:103010008F7D8093D8008091E1008F7E8093E100C6
:103020008091E2008F7E8093E2008091E2008160D7
:103030008093E20080912305882309F447C084E04F
:1030400080932205809122058091E10083FF27C0B3
:103050008091E20083FF23C08091E100877F80930D
:10306000E10082E080932205109223058091E10027
:103070008E7F8093E1008091E2008E7F8093E2005A
:103080008091E20080618093E20042E060E080E0B5
:103090000E94BF078091F00088608093F000FF914C
:1030A000EF91BF91AF919F918F917F916F915F91C0
:1030B0004F913F912F910F900FBE0F901F90189539
:1030C00019BC109222051092FD0474CF8091E30088
:1030D00087FD93E090932205B5CF78941F921FB699
:1030E0001F9211248F939F93AF93BF938091F40409
:1030F0009091F504A091F604B091F7040196A11DFA
:10310000B11D8093F4049093F504A093F604B0935A
:10311000F704BF91AF919F918F911F901FBE1F9099
:1031200018959C014FB7F8948091F4049091F504A0
:10313000A091F604B091F7044FBF821B930B089542
:103140002FB7F8948091F4049091F504A091F604BF
:10315000B091F7042FBF08950E94A0189C01909190
:10316000220380912303982B21F030931F03209397
:103170001E039091240380912503982B21F0309316
:103180001D0320931C03E091EF04F091F0043097AD
:1031900049F082E0809320030480F581E02D80E2F5
:1031A00093E00995089590E080E00E942F0990E057
:1031B00080E00E941909109290020E94C60E86E0DB
:1031C000E0E2F3E0DF011D928A95E9F710921A031D
:1031D0001092190310921B030E94AC18089590934B
:1031E000E8028093E7020E94D318089521E030E0BE
:1031F00002C0220F331F8A95E2F720953095809107
:10320000E7029091E802822393230E94EF18089529
:1032100090916F028095892380936F02282F2770E9
:1032200091F4282F082E000C330B9217130659F037
:103230009091F90492FF07C08595859585950E9428
:10324000F61810926F020895CF93C091F904C2FB53
:10325000992790F9981791F080FBC2F9C093F9046F
:103260006091F80484E090E00E943A326C2F82E290
:1032700090E00E943A3282E00E940819CF910895AE
:1032800021E030E002C0220F331F8A95E2F78091DF
:10329000E7029091E802822B932B0E94EF18089589
:1032A00090939402809393020E94D31808951092F1
:1032B000910280914E01E0E0F2E0882361F080917C
:1032C000F80487FF08C08EE1DF011D928A95E9F7B7
:1032D0000E94D318089586E0F7CFAAE2B0E0E3E7B2
:1032E000F9E10C94333184E295E02091F100FC0186
:1032F0002193CF01F5E08C329F07B9F78091250526
:10330000833009F470C0B8F4813009F447C08230CA
:1033100009F4B1C08091E80083FF7EC2809124054A
:10332000909125059A3008F077C2E92FF0E0ED5230
:10333000FD4C0C9489318A3009F48CC08B3009F42F
:103340006FC0893039F780912405813219F7809157
:103350002805909129050297E8F68091E800877F7B
:103360008093E8008091E80082FF38C09091F300DC
:103370008091F200029731F48091F100813011F0D8
:10338000863021F48091F1008093FF048091E80061
:103390008B778093E8000E94A007BCCF8091240522
:1033A000813A09F0B7CF8091E800877F8093E800E9
:1033B0008091280590912905892B61F460E280E0D5
:1033C00095E070E00E944C088091E8008B77809334
:1033D000E800A0CF60E090E080E0F3CF809122058C
:1033E0008111C0CF97CF80912405813A09F092CF07
:1033F0008091280590912905892B09F08BCF809128
:10340000E800877F8093E8008091E80080FFFCCF90
:1034100080914E018093F1008091E8008E77B9CFC2
:1034200080912405813209F075CF80912805909113
:103430002905892B09F06ECF8091E800877F809362
:10344000E8000E94A0078091260580934E010E940B
:10345000571960CF80912405813209F05BCF8091AC
:10346000E800877F8093E8000E94A00780912705ED
:103470008093FE044FCF80912405813A09F04ACF12
:103480008091E800877F8093E8008091E80080FFCA
:10349000FCCF8091FE04BECF803899F0823809F0CD
:1034A000BBC1809128058F70873008F0B5C180932B
:1034B000E9008091EB0085FB882780F91092E900F4
:1034C00006C0809120059091210591118260909114
:1034D000E800977F9093E8008093F1001092F1004C
:1034E0008091E8008E7794C1882309F482C18230EC
:1034F00009F092C180912605811185C1809128052E
:103500008F702FEF280F263008F086C18093E900D6
:103510002091EB0020FF77C1933031F48091EB00D4
:1035200080628093EB006FC19091EB00906190936B
:10353000EB0021E030E001C0220F8A95EAF72093EA
:10354000EA001092EA008091EB008860EACF8111D6
:1035500063C1109126051F778091E3008078812B4D
:103560008093E3008091E800877F8093E8000E94C9
:10357000A0078091E80080FFFCCF8091E300806885
:103580008093E30082E0111183E08093220544C11F
:103590008058823008F040C180912605909127051F
:1035A0008C3D23E09207A1F583E08A838AE2898338
:1035B0004FB7F894DE01139620E03EE051E2E32F8E
:1035C000F0E050935700E49120FF03C0E295EF70C4
:1035D0003F5FEF708E2F90E0EA30C0F0C7968D937A
:1035E0009D932F5F243159F74FBF8091E800877F6B
:1035F0008093E8006AE270E0CE0101960E944C08D8
:103600008091E8008B778093E80006C1C096E7CFF1
:103610004091280550912905292F33272330310562
:1036200009F444C078F52130310509F46FC08BE30B
:1036300090E0EBE2F7E02230310509F0EDC0209197
:10364000E800277F2093E80020912A0530912B0580
:103650008217930708F49C0140E02115310509F019
:1036600064C0411162C08091E80082FDC9CF8091A1
:103670002205882329F2853019F28091E80083FF22
:10368000F2CFBECF21323105A9F12232310509F046
:10369000C3C04115510509F443C04130510509F03B
:1036A000BBC086EB90E0E5E3F6E0C9CF9927813017
:1036B0009105C1F0009759F0029709F0ADC0E8E715
:1036C000F7E0E4918E2F90E0E8E7F7E007C0E8E943
:1036D000F7E0E4918E2F90E0E8E9F7E0009709F435
:1036E0009BC0ADCFE6E8F7E0E4918E2F90E0E6E8EE
:1036F000F7E0F4CF4115510571F04130510509F063
:103700008BC089E090E0E6E5F7E099CF82E190E0B8
:10371000E6E6F7E094CF89E090E0EDE3F7E08FCFC5
:1037200080E490E0EBEEF6E08ACF809122058823DA
:1037300009F466CF853009F463CF8091E80083FDFA
:103740005FCF8091E80082FD8ECF8091E80080FFFE
:1037500084CF9091F3008091F2002115310519F08A
:103760008830910550F041E0089709F040E08091E1
:10377000E8008E778093E80070CF44914093F10089
:103780003196215031090196E8CF803809F044C0C4
:103790008091E800877F8093E800809123058093E3
:1037A000F1009ECE811138C0109126051230A0F58F
:1037B0008091E800877F8093E800109323050E94A2
:1037C000A007112311F084E005C08091E30087FD7C
:1037D000FACF81E08093220542E061EC81E00E9413
:1037E000BF0742E261EC82E00E94BF0780912205A0
:1037F00013C080912605813079F481E0933009F07F
:1038000080E0809321051092E9008091E800877F95
:103810008093E8000E94A0078091E80083FF0AC01F
:103820008091E800877F8093E8008091EB008062C0
:103830008093EB00AA96E3E00C944F311F920F9215
:103840000FB60F9211242F933F934F935F936F9373
:103850007F938F939F93AF93BF93CF93DF93EF9318
:10386000FF93D091E900DF708091EC00C82FC17008
:1038700080FDC0E81092E9008091F000877F80937E
:10388000F00078940E946D191092E9008091F00088
:1038900088608093F000CD2BCF70C093E900FF913A
:1038A000EF91DF91CF91BF91AF919F918F917F91D8
:1038B0006F915F914F913F912F910F900FBE0F909D
:1038C0001F9018950E9457192FEF84E39CE0215018
:1038D00080409040E1F700C0000088E19CE00FB616
:1038E000F894A895809360000FBE90936000FFCF7E
:1038F000882391F19CEF980F913A40F4682F8EEF56
:1039000091E00E94BA080E94C60E089590E2980FB6
:10391000983050F4877091E001C0990F8A95EAF7CA
:10392000892F0E94210DEFCF9BE5980F933028F44B
:1039300090E080E00E942F09089598E5980F973154
:1039400028F490E080E00E94190908958D3E20F04F
:103950000E94020A0E94AC180895CF93C82F8823B2
:10396000D1F18CEF8C0F813AC0F580914E01882304
:1039700011F18091F80487FF1EC0EC2FE695E695C3
:10398000E695F0E0E250FE4F828190E04C2F4770C8
:1039900021E030E002C0220F331F4A95E2F7822374
:1039A0009323892B89F06C2F8EEF91E00E94BA0847
:1039B0000E94C60E09C0E0E0F2E08191C81799F3B9
:1039C00082E0E630F807C9F76C2F8EEF91E00E9495
:1039D000E4080E94C60ECF91089580E28C0F8830D3
:1039E00068F4C77021E030E001C0220FCA95EAF701
:1039F00080919102822B80939102EBCFEBE5EC0F4B
:103A0000E33040F4F0E0E457FE4F808190E00E9404
:103A10002F09E1CFE8E5EC0FE73150F4F0E0EE0FCD
:103A2000FF1FE157FE4F808191810E941909D3CF7A
:103A3000CD3E88F28C2F0E94BD0A0E94AC18CBCFDD
:103A40000F931F93CF93DF93C62FD42F022FFC0128
:103A500082818823A9F060932E050E94A01890937C
:103A60002D0580932C05C77081E001C0880FCA9591
:103A7000EAF70E94220FDF91CF911F910F910895D5
:103A800080912E05681335C080912C0590912D05ED
:103A90000E949118883C910560F510E21D0FCD172A
:103AA000B9F080E28C0F883040F4C77081E001C02B
:103AB000880FCA95EAF70E941B0F183048F481E07E
:103AC0009D2F977001C0880F9A95EAF70E94220FE8
:103AD000802F0E94AD1C802F0E94781C183058F651
:103AE000D77081E001C0880FDA95EAF70E941B0FBA
:103AF000C2CFC77081E001C0880FCA95EAF7F6CF40
:103B00000E941613882319F00E94A01808950E949D
:103B10004C13CB0108956091E204669570E04BE090
:103B200050E08BE391E00E940332892B19F481E08D
:103B300080932D030E94801D90932703809326037A
:103B400080912E03846080932E0308959091E20467
:103B500090FF31C0917081112FC092609093E20468
:103B600080912E03816080932E03662351F0609133
:103B7000E2047091E3048091E4049091E5040E94D2
:103B80009C146091E204669570E04BE050E08BE39A
:103B900091E00E940332892BB1F00E944C0981E030
:103BA0008093290320E04091E5046091E404809132
:103BB000E3040E94AF1408958B3210F09465CECFC9
:103BC000880F982BCBCF0E948B1DE9CF8091E20408
:103BD0008695815009F48AE261E00E94A61D08954D
:103BE0008091E20486958F5F8B3208F081E061E07E
:103BF0000E94A61D08959091E20490FF08C096953A
:103C0000981728F0961718F40E94F01D089561E0A7
:103C10000E94A61D0895A5E0B0E0E1E1FEE10C944C
:103C20002A317C01FC0183819481892B31F08081D0
:103C3000918189238F3F09F0D1C52596ECE00C9442
:103C400046310E94320D182F682F89819A810E9477
:103C5000A60D69817A81812F0E94730B8C01F70177
:103C60008281882309F487C590E2909333019801FB
:103C700030562115F0E23F0708F445C0305E2115AB
:103C8000304108F440C01093F1020093F0020C336D
:103C9000110530F4F801E05BFE4F90819093330101
:103CA000F70191819093F30290819093F202043F87
:103CB000FCE51F0709F48AC068F5093D3CE51307D8
:103CC00009F480C00A3D9CE5190709F48BC0083D42
:103CD000ECE51E0759F526E241EE61EEC7010E94B0
:103CE000201D80916F02877009F4A7CFF7018281B0
:103CF000882309F4A2CF8091F90482FF9ECF82E04D
:103D00000E9408199ACF980133273093F10220932B
:103D1000F002BDCF063FFCE51F0709F45FC008F4C1
:103D200059C0073F3CE5130709F454C510922E050E
:103D300004309DE5190708F058C00B3FECE51E075D
:103D400038F4980122503C452431310508F058C020
:103D50000E94BE159093F9048093F80402319CE50B
:103D6000190709F45DC108F0ADC00930FCE51F0773
:103D700009F434C108F077C005303CE5130709F4B5
:103D800021C108F05EC003309CE5190709F412C197
:103D900008F014C18091F80481600230FCE51F072F
:103DA00009F48DC06091F8041091F90484E090E06A
:103DB0000E943A32612F82E290E00E943A320E94E1
:103DC00057198FCF27E245EE65EE88CF26E241EE08
:103DD00060EE84CF27E245EE64EE80CF26E241EE2E
:103DE00062EE7CCF28E241E0EFCF063AFDE51F0707
:103DF00009F4AECFF8F402363DE5130709F4A8CF75
:103E000006313CE5130709F035C1882309F4CDC418
:103E1000809191028A7A91E009F490E090931E02D9
:103E200069E2811165E38EEF91E00E94E4080E944F
:103E3000C60E57CF98012E5A3D452330310500F765
:103E400087CF8091F804806207302CE51207B9F122
:103E50008091F804806108303CE5130780F180917F
:103E6000F80480642CC00D308CE5180709F4C0C03C
:103E700090F48091F8048E7F0B30ECE51E07F9F08A
:103E80008091F8048C600C30FCE51F07C0F0809135
:103E9000F8048D7F14C00F302CE5120709F4B8C068
:103EA00008F4AAC000318CE5180709F4B5C0809168
:103EB000F8048F7B01319CE5190709F073CF8093DB
:103EC000F80470CF0115EDE51E0709F4B3C098F5AD
:103ED0000B3F2CE5120709F479C0C0F404318CE5DE
:103EE000180709F4B5C008F4A1C00531ECE51E07B8
:103EF00009F058CF8091F80482FB992790F921E0CE
:103F0000922790FB82F990FB83F9D9CF0D3FFCE516
:103F10001F0709F475C008F45DC00E3F3CE51307A8
:103F200009F472C00F3F8CE5180709F03BCF809170
:103F3000F90483603CC002369DE5190709F493C07B
:103F400090F40230FDE51F0709F48BC008F476C039
:103F500060E003303DE5130709F024CF8EE090E0E8
:103F60000E943A321FCF0E3A8DE51807E9F060F44F
:103F70009091F804892F8E7F90FF8160063AEDE5DD
:103F80001E0709F49CCF0ECF0F3AFDE51F0761F124
:103F9000003B2DE5120709F005CF9091F904892F18
:103FA000877F93FF886003C08091F90488608093C5
:103FB000F904F8CE8091F804826081CF8091F804F2
:103FC00084607DCF8091F804886079CF8091F90476
:103FD0008160EDCF8091F9048260E9CF0E9457198A
:103FE0008091F80480686BCF8091F904877FDFCFE0
:103FF0008091F8048B7F63CF8091F804877F5FCF37
:104000008091F9048E7FD3CF8091F9048D7FCFCF3B
:104010008091F8048F7E53CF8091F8048F7D4FCF2D
:104020000E9457198091F8048F7749CF8091F80446
:10403000837F45CF8091F9048C7FB9CF8091F904BB
:10404000982F909591708E7F892B90FB81F9AFCF3F
:104050000E9457199091F804892F97FB87F980588F
:104060002ECF61E07BCF9091F804892F8F7E94FF53
:10407000806125CF811137C18091910282720D3C00
:104080009CE5190709F415C108F08EC0073CFCE552
:104090001F0709F4FAC008F065C0043C3CE51307AB
:1040A00009F4E9C008F04DC0033CECE51E0709F433
:1040B000B8C0F701828100811181882309F449C1C8
:1040C000C8010E94320DD82E682FC8010E94A60D8B
:1040D000B8018D2D0E94730B0E948E0B8C01882ECF
:1040E000F701D280B580B2943FE0B32280916F0295
:1040F0008770C1F0AD2CDD20B1F0812F807F80343E
:1041000021F080E2800F883068F08091F90482FF0E
:1041100009C082E00E94081980916F028770AA246A
:10412000A3948111A12C912E92942FE09222FBE076
:10413000F91508F47AC1E92DF0E0E352FD4C0C9436
:104140008931053CFCE51F0709F49AC04DE655E1AD
:1041500067E775E1063C2CE5120709F0AACF0E943B
:104160004509BFCD0A3C3CE5130709F498C070F43B
:10417000083CECE51E0709F48DC040E655E163E517
:1041800075E1093CFCE51F0751F393CF0B3C2CE58F
:10419000120709F489C041E855E163E975E10C3C77
:1041A0003CE51307E1F285CF023D8CE5180709F4E1
:1041B0008EC0B0F40F3CECE51E0709F482C008F491
:1041C0007DC0003D2CE5120709F47EC06EE089E059
:1041D000013D3CE5130709F06CCF0E94FB1D81CD2A
:1041E000053D8CE5180709F478C078F4033DECE54B
:1041F0001E0709F46FC061E088E1043DFCE51F077C
:1042000009F057CF0E94A61D6CCD063D2CE5120784
:1042100009F466C06AE285E20E353DE51307E9F26E
:1042200048CF8091E20480FF20C08E7F8093E2041B
:104230006091E2047091E3048091E4049091E504BC
:104240000E949C140E944C0980912E0381608093EF
:104250002E038FEF90E7E2E081509040E040E1F7DD
:1042600000C000000E94FE0F3CCD81608093E204FC
:1042700061E08695C7CF46EE5DE160EF7DE16FCFEF
:1042800040EF5DE166EE7DE16ACF47E755E16DE61F
:1042900075E165CF43E555E160E675E160CF49E33F
:1042A00055E166E475E15BCF46E455E169E375E10C
:1042B00056CF43E955E161E875E151CF61E081E016
:1042C000A1CF65E082E089CF68E086E086CF64E137
:1042D0008FE083CF67E185E180CF62E289E17DCF26
:1042E00061E083E28FCF0B35FDE51F0771F158F4D4
:1042F00001153CE5130791F00F3D1C4509F0D9CE9F
:104300000E942C1709C00D359DE51907A1F0F8F0A2
:10431000083A1D4509F0CDCE0E94621C0E94571933
:104320002FEF34E38CE0215030408040E1F700C0B3
:1043300000000E94DA0F8091F90482FB882780F93F
:1043400091E089270E942419B4CE81E0FBCF80E060
:10435000F9CFC8010E94730DD82EBACE212F2F702D
:10436000C22E107F19F0C29490EFC922DD20B9F05F
:10437000CC2069F080E2800F883010F0811009C0F5
:1043800080919102C82AC09291020E94C60E802F8D
:104390004AC080919002C82AC0929002F6CF802F26
:1043A0000E94781CCC2009F440C0005E083010F058
:1043B000811004C08C2D0E94210D06C0C0948091F4
:1043C0009002C822C09290020E94C60E2EC0312FC9
:1043D0003F70C32E107F103219F0C29480EFC822B4
:1043E000882089F081E0881609F477C0DD2009F47F
:1043F00081C0BB2009F477C0F701858180FFC7CF5A
:104400008F70858370C02091F90422FD43C0DD20A8
:10441000D9F1CC2039F080919102C82AC092910242
:104420000E94C60E80E00E94AD1CE92DE850FF0BF3
:10443000349710F40E943B13AA20A9F080916F02D8
:1044400080FD11C0F70112828595859585950E94A2
:104450004019C7010E940B1E80916F0285958595BA
:1044600085950E94F61885E0F701DE01119601900E
:104470000D928A95E1F709811A81C8010E94730D96
:10448000B8010E94730BD9CB80E00E94781CCC202D
:1044900061F290CFDD20A1F0909192028C2D892BBA
:1044A000B11003C00E94220FC0CFE1E0BE12FACFCC
:1044B00022FFBBCF981709F4B8CF80939202B5CFF3
:1044C000B11006C00E941B0D8C2D0E941B0FADCF9A
:1044D000F1E0BF1609F4A9CFF5CFDD2031F025E0DA
:1044E0002B1508F4A2CF8C2DDDCF34E03B1508F45A
:1044F0009CCFEACFBB2041F3F9E38F1235C12FEFF8
:1045000037EE83E0215030408040E1F700C00000EA
:104510002BC1812F86958695837061F0813009F0DB
:1045200084CFC8019370D11002C090E080E00E9457
:1045300019097BCFC8019370D11002C090E080E0D0
:104540000E942F0972CF802FDD2029F00E94BD0A22
:104550000E94AC186ACF0E94020AFACF812F8370A2
:1045600009F03FC0D11061CF402F4295469547706A
:10457000440F440F802F8F7090E0042E02C0880FEC
:10458000991F0A94E2F730E020E004FF09C02FE011
:1045900030E002C0220F331F4A95E2F72095309594
:1045A000169516951370123099F078F44091930295
:1045B00050919402113039F0822B932B8423952350
:1045C0000E94501932CF842B952B822B932BF8CF3E
:1045D000822B932B20919302309194028227932770
:1045E000EFCF8695DD2011F0812F8170882309F4AB
:1045F0001CCF402F429546954770440F440F802FA3
:104600008F7090E0042E02C0880F991F0A94E2F781
:1046100030E020E004FF09C02FE030E002C0220FAC
:10462000331F4A95E2F7209530951695169513702D
:10463000123099F078F44091E7025091E80211307D
:1046400039F0822B932B842395230E94EF18EDCE13
:10465000842B952B822B932BF8CF822B932B20919D
:10466000E7023091E80282279327EFCF1F70DD2009
:1046700029F0812F0E944019802F14CF802F0E9493
:104680001B0F812F0E94F618D0CE802F92EF891633
:1046900099F1981570F0E0EF8E16D1F0F1EF8F16CA
:1046A00091F0DD2009F45BC0B11071CE812F8F71C4
:1046B00027C023EF821639F134EF8312F2CF8091B5
:1046C000F90482FD2EC0812F8F71DD20D9F218C030
:1046D000DD2069F084E08B1508F4A7CE1F7181E01E
:1046E00090E002C0880F991F1A95E2F7B8CF95E0C5
:1046F0009B1508F49ACEF2CF812F8F71D110C2CFC3
:104700000E94401992CE90E080E0DD2009F49DCF18
:104710001F7181E090E002C0880F991F1A95E2F79F
:1047200094CFDD2089F01F71812F0E944019809164
:10473000F90482FF07C0E8E01E9FC00111248360D6
:1047400080936F02812FDCCF81E00E940819F1E095
:10475000FB1508F06ACE82E00E94081966CEBB20E5
:1047600039F0893309F4CBCE802F0E94781C5DCEBE
:10477000812F8F7187CF043FFCE51F0709F426CBFB
:10478000F0F4093D3CE5130709F41CCB0A3D8CE528
:10479000180709F427CB083D9CE5190709F49BCAC3
:1047A00006318CE5180709F067CC80911E0269E29A
:1047B000811165E38EEF91E00E94BA0838CB063F85
:1047C000ECE51E0709F40ACB08F404CB073F2CE5FF
:1047D000120731F727E245EE66EE80CA85E0DE017A
:1047E000119601900D928A95E1F7F7012281898156
:1047F0009A81211126CA0E94730D182F2ACA1F936D
:10480000CF93DF9380913C02807F09F049C0809173
:104810003902882309F444C080916E02D0913D0290
:104820006091370270913802A0913A02B0913B0238
:10483000C62FC72316E0D81799F190E0109711F012
:10484000CF3F19F401968770F6CF189F9001199FFA
:10485000300D1124F901E25CFD4F41814713F2CF85
:1048600040814613EFCF42814111ECCF4381548107
:104870004A1B5B0B483C510528F780913C028F7026
:10488000806180933C02F901ED5BFD4F80818F7068
:104890008061808387E392E00E940B1E0E94280DB6
:1048A000DF91CF911F910895A1E1B0E0EAE5F4E234
:1048B0000C942C318C0185E0F801DE011D960190ED
:1048C0000D928A95E1F7F801E28087E3A82E82E055
:1048D000B82E60913A0270913B026115710509F49E
:1048E00026C19091370240913802892F84238F3F4F
:1048F00009F41DC120813181C380D480F090390238
:10490000F601E61BF70BFF2009F4DCC080913C02A6
:10491000582F507FE83CF10508F09FC051116BC043
:10492000FE2C431314C0921312C0E11010C08F70FC
:10493000806180933C02C5010E940B1E80913C0265
:10494000F80185838F2D6196EAE00C944831C114FB
:10495000D10429F0822F83238F3F09F003C180E027
:10496000F82FF170DF2E80FF3CC080916E024091E5
:104970003D0256E0841315C02D873E878D859E85A8
:104980000E94660D292F22952F702230F0F02430DE
:1049900018F59F70F1F0F8019581907FD1F4D12C3A
:1049A0001EC090E0589FF001599FF00D1124E25C69
:1049B000FD4F6181361306C06081261303C06281FA
:1049C000E6120FC001968770D5CF9F7011F0882333
:1049D00031F3805E883018F3C8010E940B1EFD2C55
:1049E000B1CFEE2009F4AECF80913C02816080937C
:1049F0003C02F12CA7CF431306C0921304C0F80168
:104A0000EE2009F479C0C8010E94DC0D882309F169
:104A1000EE20F9F080913C02803270F02091370254
:104A20003091380238872F831986DB86CA868C87B7
:104A3000CE0107960E940B1E86E0F801A7E3B2E0C4
:104A400001900D928A95E1F70E94FF23FF24F394D1
:104A500079CFC8010E940B1EF9CF51110AC087E31C
:104A600092E00E940B1E86E0F50111928A95E9F70B
:104A7000C0CF43130FC092130DC0E1100BC0F8015B
:104A80008583C8010E940B1E86E0F50111928A956C
:104A9000E9F758CFC8010E94DC0D8823D1F2EE203F
:104AA000C1F280913C02803238F22091370230917D
:104AB00038023A8329831B82DD82CC828E83CE0129
:104AC0000196B8CFE83CF105F8F6FE2CEE2009F28D
:104AD00043131FC092131DC080913C0280FD10C083
:104AE000982F907F69F0F8018583903F31F0982FDF
:104AF000907F905F8F70892B8583C8010E940B1E69
:104B000086E0F801A7E3B2E001900D928A95E1F703
:104B100019CFC8010E94DC0D81118ECF80913C021B
:104B2000816080933C02C8010E940B1E0BCFEE20D7
:104B300009F48FCFC8010E94DC0DF82E882309F4F8
:104B400088CF86E0F801A7E3B2E001900D928A9544
:104B5000E1F780913702909138020E94660D0E9421
:104B6000FF23F0CE81E08E25FBCEA7E1B0E0EBEB9A
:104B7000F5E20C9433314B8B5C8B6D8B7E8B8F8B82
:104B80006111109290021A8A198A85E0FE017396CB
:104B9000DE011D9601900D928A95E1F786E0FE01F7
:104BA0003D96DE01179601900D928A95E1F7CE01B0
:104BB00007960E945424811112C086E0FE013796A8
:104BC000DE01119601900D928A95E1F78A859B8509
:104BD000892B29F088859F8189238F3F81F516E0F5
:104BE00080916E0290913D02891317C06796E3E0B1
:104BF0000C944F3196E0929FD001939FB00D1124F9
:104C0000A25CBD4FFE01319601900D929A95E1F79D
:104C100080933D020E94280DE2CF819FC0011124A4
:104C2000825C9D4F0E945424882301F380916E0280
:104C300090E001968770992780936E02D1CF2091E2
:104C40003D0230E0C90101968770992740916E02BC
:104C50004817190679F60E94571910923D021092D2
:104C60006E0286E0E7E3F2E0DF011D928A95E9F744
:104C7000B6CFACE0B0E0EFE3F6E20C9429318E0160
:104C80000F5F1F4F88E0D8011D928A95E9F78FEBDF
:104C9000C82E81E0D82EF12CE12CAA24A394B12CAB
:104CA00029EC822E21E0922EF60181916F018F3F37
:104CB00009F442C0F894E82FE295EF70F0E021A1EA
:104CC0008F70A50102C0440F551F8A95E2F7CA01F3
:104CD000922F982B91A392A18095892382A37894F7
:104CE00000C0E3ECF1E0712C31E021912F3F09F499
:104CF0006BC0A22FA295AF70B0E090968C9190E01F
:104D00002F7002C0959587952A95E2F780FD5CC0CB
:104D1000832F782A330F8E169F0639F7F6013197C5
:104D200080818F3F11F00E94190B50EA5A95F1F7DC
:104D3000F801EE0DFF1D70828FEFE81AF80A94E07B
:104D4000E916F10409F0B0CF48E050E0B80186EC74
:104D500092E00E941032009741F028E0F801A6ECA2
:104D6000B2E001900D922A95E1F70091CF02892BD4
:104D700069F181E0809397020E94A01890939602B7
:104D80008093950280919502909196020E949118CD
:104D9000059700F110E00D521D4F44E050E066EC25
:104DA00072E0C8010E941032F12C892B51F084E08E
:104DB000E6ECF2E0D80101900D928A95E1F7FF242C
:104DC000F3941092970207C080E0A3CF80919702DE
:104DD0008111D8CFF12C0E941613E82EE091CF025A
:104DE000882309F47DC019861A861B861C860E2F1F
:104DF00010E00D521D4F8091C1028A30D8F543E872
:104E000056E1BE01675F7F4FC8010E94E31288230D
:104E100009F455C04CEC55E1BE01675F7F4FC801F6
:104E20000E94E312882309F44AC042E256E1BE011F
:104E3000675F7F4FC8010E94E312882309F43FC0D7
:104E40001092C1028091CE0290E044E050E0BE0199
:104E5000675F7F4F8D529D4F0E94103221E020935B
:104E60009E02892BF1F4E12C8E2D8F292C96EDE0FA
:104E70000C94453180919802909199020E9491186A
:104E8000843F914008F0BBCF80919E02882359F364
:104E9000FE01399684E0DF011D928A95E9F71092B0
:104EA0009E02E091CE02F0E0ED52FD4F89859A8599
:104EB000AB85BC8580839183A283B383D5CF80915A
:104EC000C1028F3F31F08F5F8093C1028A3008F4B6
:104ED000B9CF0E94A0189093990280939802D4CFE2
:104EE000F0E0ED52FD4F84E0ADEAB2E001900D92AA
:104EF0008A95E1F78DEA92E00E940F078093AC0259
:104F00008090B1029090B202A090B302B090B4022F
:104F100080919A0290919B02A0919C02B0919D0277
:104F200088169906AA06BB06D1F080929A02909242
:104F30009B02A0929C02B0929D020E9416138111C6
:104F40000EC00E94AE08861A970AA80AB90A809273
:104F5000C2029092C302A092C402B092C502809194
:104F6000BC02882309F480CF80FF0DC08091B50278
:104F70009091E20480FF28C091609093E20460E089
:104F800086950E94A61D8091BC0281FF09C020E089
:104F90004091B8026091B7028091B6020E94AF14AE
:104FA0008091BC0282FF06C08091BB02882311F170
:104FB0000E948B1D8091BC0283FF03C081E080931F
:104FC00029031092BC0250CF9E7F9093E2040E946E
:104FD0004C0980912E03816080932E03BFEFE0E7A0
:104FE000F2E0B150E040F040E1F700C000000E9464
:104FF000FE0FC9CF0E944C09DDCF1F921FB61F9232
:1050000011248F939F93AF93BF938091F3048111E9
:1050100013C08091F4049091F504A091F604B0912E
:10502000F7044196A11DB11D8093F4049093F504FB
:10503000A093F604B093F704BF91AF919F918F9125
:105040001F901FBE1F901895CDB7DEB764970FB69F
:10505000F894DEBF0FBECDBF85B7806885BF85B72A
:10506000806885BF84B7877F84BF0FB6F894A89502
:1050700080916000886180936000109260000FBE94
:1050800080E890E00FB6F8948093610090936100FF
:105090000FBE87E19BE09093FD018093FC010E948D
:1050A00026070E94F1078091E20084608093E2006D
:1050B0007894809122058823A1F01091E9001F7057
:1050C0009091EC00892F817090FD80E8182B109250
:1050D000E9008091E80083FD0E946D191F70109314
:1050E000E90082E084BD93E095BD9AEF97BD80937F
:1050F0006E001092C2021092C3021092C40210926B
:10510000C5020E94161380932401809124018823F4
:1051100009F473C0109249018BE180934A010E9407
:10512000161381110E94AE2F8091240180912401D9
:1051300094E0811190E09093CF0284E0891B8093EA
:10514000CE0284E90E94190B86E60E94190B87E9BA
:105150000E94190B86EC0E94190B03EC11E0F9EC8C
:10516000EF2EF1E0FF2ED8018D918D018F3F11F0D0
:105170000E94190BE016F106B1F788E0E3EDF2E0CA
:10518000DF01082F1D920A95E9F7E6ECF2E0DF0156
:105190001D928A95E9F790E080E00E943432883EC3
:1051A0009E4F11F00E942C1782E090E00E94263260
:1051B0008093DB020E94BE159093F9048093F8045B
:1051C0000E943926EFE3FCE93197F1F700C00000B7
:1051D0000E9439260E941613E4E08111E0E0F0E01D
:1051E000ED52FD4F808181FF0CC06FEF7FEF90E0AB
:1051F00080E00E9458320E94DA0F8BE180934901CF
:105200008CCF83E090E00E94263290E00E945019FB
:105210000E9416138111F2C082E08093140380E88B
:10522000809334050E94682E6DE070E08FED91E070
:105230000E946613892BE9F58091140363E070E006
:1052400081FDDEC08CED91E00E946613892B89F50B
:105250006DE070E08CEC91E00E946613892B49F5BB
:105260000E94AE08605A75418F4F9F4F6093E704CC
:105270007093E8048093E9049093EA04E7E3F5E08F
:1052800080E092E0DF018C011D9201501040E1F7B7
:10529000F0933E07E0933D078FEF9FEF9093360525
:1052A0008093350581E08093EC048093EB041092A9
:1052B00015038091D00281113BC090E080E00E94F4
:1052C0003432883E9E4F21F00E942C170E94A51573
:1052D00088E090E00E942E326093E2047093E30431
:1052E0008093E4049093E50480912E03836080937F
:1052F0002E036E7F71F40E94A51588E090E00E9455
:105300002E326093E2047093E3048093E40490935C
:10531000E5040E9453090E944C098091E20480FF39
:1053200004C060E086950E94A61D81E08093D002B3
:105330000E941613811102C00E94B12F85E291E0F4
:105340009093F0048093EF04EAE08E2E912CA12C30
:10535000B12C8091220500E112E1853009F48DC065
:105360000E9439260CED12E073EDE72E72E0F72E65
:1053700024EE32E0D701F80191918D912E173F076D
:1053800009F485C09817C1F30E941613482ED12C3A
:10539000D701CD907D01F80151908F015C1429F166
:1053A000712C662463945C24852D8621B1F0442001
:1053B000A1F07C86DD8691E08C2D862109F490E0B9
:1053C0009E870E94A0188160782F988B8F874C85CC
:1053D0005D856E8588890E94B5257394660CF6E01C
:1053E0007F12E2CFF8013197C082D39428E0D21225
:1053F000CFCF0E94AE08772473946AC080E00DCFAF
:1054000089ED91E021CF80912205843031F10E9415
:1054100090131092F30428E130E040E40FB6F894C2
:10542000A895209360000FBE4093600083B7817FF2
:10543000846083BF83B7816083BF7894889583B786
:105440008E7F83BF0FB6F894A89580916000886125
:1054500080936000109260000FBE80912105882328
:1054600061F00E943926E3EDF2E08191811110C4D0
:105470008BED92E08E179F07C1F780912205853052
:1054800009F4C1CF0E9457190E943B1369CF9813AA
:105490007BCF0E94A0188C018091D1029091D20202
:1054A00008171907A1F08FEF8F83888719860E944C
:1054B000A0188160782F9B878A874F8158856985DE
:1054C0008B850E94B5251093D2020093D102712CD6
:1054D0000E94161380912D03882309F464C08091E3
:1054E0002C03E091E204E695E81BE0932803823068
:1054F00009F067C1F0E0E350FE4FE4910E2F10E099
:105500006FECE62E62E1F62E80912903882361F08C
:10551000109229030E94801D9093270380932603F5
:1055200010922B0310922A030E94801DE091260303
:10553000F09127039C012E1B3F0B2F3F3F4798F50F
:105540002091E6022223B1F01092E6022091E402BB
:105550003091E502821B930B8F3F9F4758F4205DEB
:105560003A483093E5022093E40280912E0388604C
:1055700080932E03C0902A03D0902B03E00FF11FDD
:10558000F0932703E093260386E293E0F701099561
:1055900080912A0390912B03892B29F4CD2819F0AF
:1055A00081E08093E6028091EC04882351F18091A0
:1055B0001603909117030E949118C29708F06DC1CD
:1055C00020913505309136052115310509F07BC252
:1055D0008091EB048823A9F00E94AE080091E704B3
:1055E0001091E8042091E9043091EA04601B710BEA
:1055F000820B930B6F3F7F4F8F4F9F4710F40E949A
:10560000901371100E94AB1386E0E0E2F3E0DE013C
:10561000119601900D928A95E1F710922203109253
:10562000230310922403109225038B819C81892BE4
:1056300009F44AC080911E0390911F030E949118A3
:105640009C0190911A03992309F43DC3253131053A
:10565000D8F19F3F19F09F5F90931A031B8111238C
:1056600059F00E949D0A9FEF11160CF491E0899F5A
:10567000802D1124809322031C81112359F00E9454
:105680009D0A9FEF11160CF491E0899F802D112443
:1056900080932303309122033323B1F0209123031D
:1056A000222391F045EB3403C0011124992309F41E
:1056B000DFC29093220305EB2003900111243323D2
:1056C00009F4DAC2309323038D819E81892B09F47A
:1056D0004AC080911C0390911D030E9491189C0167
:1056E00090911903992309F4E9C221353105D8F1C4
:1056F0009F3F19F09F5F909319031D81112359F06B
:105700000E947B0A9FEF11160CF491E0899F802D77
:105710001124809324031E81112359F00E947B0AD7
:105720009FEF11160CF491E0899F802D1124809336
:105730002503309124033323B1F020912503222344
:1057400091F015EB3103C0011124992309F498C29B
:105750009093240345EB240390011124332309F48F
:1057600093C23093250346E050E0BE016F5F7F4F48
:1057700080E293E00E941032892B61F48091220331
:1057800090912303892B90912403892B90912503D9
:10579000892B11F00E94AC1886E0FE013196A0E240
:1057A000B3E001900D928A95E1F70E943B1390912E
:1057B0001803891709F4CDCD809318030E94AE0811
:1057C000C8CD863059F4F0E0E650FE4FE4910E2F3C
:1057D00010E05FEBE52E52E1F52E96CE893061F4B4
:1057E000E695F0E0E950FE4FE4910E2F10E048E11D
:1057F000E42E42E1F42E88CE8F3061F4E695F0E09D
:10580000EC50FE4FE4910E2F10E03DE8E32E31E125
:10581000F32E7ACE853159F4F0E0EF50FE4FE4914B
:105820000E2F10E028E0E22E21E1F22E6DCE08E2EC
:1058300010E0B6E8EB2EB0E1FB2E883109F464CE1F
:10584000833249F4EFEEF1E0059114919EE6E92EE2
:1058500092E1F92E59CE04EF11E0A9E4EA2EA0E17D
:10586000FA2E843209F450CE00ED17E0FBE4EF2E5F
:10587000F9E0FF2E853209F047CE8E2F63E00E94BB
:105880005B31E92FF0E0E451FE4FE4910E2F10E080
:1058900083EDE82E83E1F82E37CE0E94A018909376
:1058A00017038093160387E395E090933E07809358
:1058B0003D070E941613882309F4C7C08CE192E0CB
:1058C0000E94860E2091E7023091E802832F9927EB
:1058D000009709F470C09C0188E0A90174E0569516
:1058E00047957A95E1F74115510511F08C5F9A01C2
:1058F000A90156954795569547954115510511F0C3
:105900008E5F9A0136952795232B09F08F5F8130A2
:1059100009F45BC0882309F450C0823009F458C0F0
:10592000833009F458C08091F3020E94A806FC015C
:10593000019620812032D9F3CF010E942C0F8AE2F8
:1059400092E00E94860E8091F2020E94A806FC015D
:10595000019620812032D9F3CF010E942C0F86E2DC
:1059600092E00E94860E2090F0023090F102809129
:105970003101909132012816390681F58091EF02AC
:10598000803261F529EE32E0C9012F5F3F4FFC0103
:1059900040814032C9F30E942C0F84E292E00E94C1
:1059A000860E809133010E94060E8091EC048823BC
:1059B00009F40ECE05CE80E090CF84E192E00E9403
:1059C000860E81E00E94940EAECF8EE092E0F7CF7B
:1059D00088E092E0F4CF81E092E0F1CF30923201A2
:1059E0002092310180E28093EF02512C412C1092E1
:1059F000EE0209EEC02E02E0D02E84EEE82E82E008
:105A0000F82E8601C201B101A50194010E94A032C5
:105A1000605D603319F4C016D10631F021143104F1
:105A20004104510409F460E2D80114966C93C20158
:105A3000B101A50194010E94A03219012A0101506F
:105A40001109E016F106F1F69DCF80913D07909186
:105A50003E07875395409C013E5F21303240B0F0B5
:105A600020E032E0281B390B409135055091360576
:105A7000ECE2F2E0280F391F61E070E08217930733
:105A800040F050933605409335058FCF20E032E04B
:105A9000EBCF1491DC01A95CBA4F0C91101781F087
:105AA0001C93DC0115E0B695A7951A95E1F78B01DB
:105AB00002C0000F111FAA95E2F7D801402B5B2B03
:105AC00001963196DBCF8091150361E070E0811182
:105AD0007FCD082F10E02B01082E02C0440C551C6E
